:100000000C9471010C94A2010C94A2010C94A20115
:100010000C94A2010C94A2010C94A2010C94A201D4
:100020000C94A2010C944E080C944E080C944E08AB
:100030000C94A2010C94C6090C94A2010C94A20188
:100040000C94A2010C941F0C0C94A2010C94A2011C
:100050000C94A2010C94A2010C94A2010C947C09B2
:100060000C94A2010C94350B0C940B0B0C94A20174
:100070000C94A2010C94A2010C94A2010C94A20174
:100080000C94A2010C94A2010C94A2010C94A20164
:100090000C94A2010C94A2010C94A2010C94580897
:1000A0000C94A2010C94A2010C94A2010C94A20144
:1000B0000C94A2010C94A2010C94A2010C945F0B6D
:1000C0000C94A2010C94A2010C94A2010C94E10ADC
:1000D0000C94B70A0C94A2010C948D0A0C94630A38
:1000E0000C94A2010C9409070C9483020C948C02CA
:1000F0000C94B9050C9490020C944B050C940606D4
:100100000C94CD010C94F7010C947B020C945207D3
:100110000C94C70C0C9471020C9401070C94D30737
:100120000C94CD060C94ED060C9448070C943C05F9
:100130000C94CE010C9496020C948F070C945C07DF
:100140000C94AC020C9411070C9466070C949E025C
:100150000C94AE110C9470070C945F050C94DD01A7
:100160000C94A8020C94B2020C949A020C943E07D0
:100170000C94E3060C946D050C94F6040C94CB01DE
:100180000C9425070C94F0010C94A4020C94CC015F
:100190000C941B070C9424020C9486020C94900778
:1001A0000C942F070C94B1020C947F020C94B602AD
:1001B0000C94DE060C9477020C94F70602000021E2
:1001C00000240027002A002D003000330001010028
:1001D00000040107010A0100002200250028002B6D
:1001E000002E003100340002010000050108010B5F
:1001F00001000020002300260029002C002F0032DF
:1002000000000100000301060109010505050507BD
:100210000508080808020202020A0A080804040481
:1002200004010101010101010103030303030303AD
:1002300003040707070C0C0C0C0C0C0C0C0202023C
:100240000206060606060606060B0B0B0B0B0B0B2F
:100250000B010210202008081020401020408002CE
:1002600001020108040201010204081020408080FC
:100270004020100804020180040201804020100880
:100280000402010804020101020408102040800158
:100290000204081020408000000A0B02090C0D0E19
:1002A0000807030401000000000000000000000037
:1002B000000000000000000000000000000000003E
:1002C00000000012111000000000000000000000FB
:1002D0000000000000000000000000000000C70C4B
:1002E000AE1111241FBECFEFD1E2DEBFCDBF00E0C3
:1002F0000CBF12E0A0E0B2E0E0E2FAE200E00BBFE7
:1003000002C007900D92A034B107D9F727E0A0E40E
:10031000B2E001C01D92AF31B207E1F711E0C0E7D2
:10032000D1E000E006C021970109802FFE010E9464
:10033000A512CF36D10780E00807A9F70E94B00EBA
:100340000C94FE140C9400002091B302260F332766
:10035000331F21323105ECF420910003FC0190E0C1
:1003600080E0243069F082E00895A091B3022191E9
:10037000AC014F565D4FA40FB52FB11D2C930196C4
:10038000861798F38091B302680F6093B30280E000
:10039000089581E00895089508950895E0918F02E9
:1003A00080918E02E81730F4F0E0E259FD4F808131
:1003B00090E008958FEF9FEF089590918F028091C4
:1003C0008E022FEF3FEF981748F4E92FF0E0E25943
:1003D000FD4F208130E09F5F90938F02C901089507
:1003E00080918E0290918F02891B990B0895CF9274
:1003F000DF92EF92FF920F931F93CF93DF937C01D5
:10040000CB018A0120910603222389F0EB016B01C5
:10041000C40ED51ECC15DD0569F06991D701ED91AB
:10042000FC910190F081E02DC7011995F3CF642F65
:100430000E94A401C801DF91CF911F910F91FF90FD
:10044000EF90DF90CF900895CF93DF931F92CDB7B9
:10045000DEB76983209106032223F9F02091290356
:10046000203258F021E030E0FC013383228390E019
:1004700080E00F90DF91CF91089580910703E82FDE
:10048000F0E0E85FFC4F998190838F5F80930703D2
:100490008093290381E090E0ECCF61E0CE010196EA
:1004A0000E94A401F7CF8150823108F05AC0E82F92
:1004B000F0E08827E15AFD4F8F4F0C94A5127F0280
:1004C0008302710277027B02B10286028C029002E3
:1004D00096029A029E02A402A802B102AC02B202E3
:1004E000B602809180008F7780938000089580917C
:1004F00080008F7DF9CF80918000877FF5CF84B514
:100500008F7784BD089584B58F7DFBCF8091B00037
:100510008F778093B00008958091B0008F7DF9CFE0
:10052000809190008F778093900008958091900043
:100530008F7DF9CF80919000877FF5CF8091A000CB
:100540008F778093A00008958091A0008F7DF9CFD0
:100550008091A000877FF5CF809120018F778093D5
:1005600020010895809120018F7DF9CF8091200195
:10057000877FF5CFCF93DF93282F30E0F901E9563D
:10058000FD4F8491F901EF5AFD4FD491F901E55FD8
:10059000FD4FC491CC23A1F081110E945302EC2F96
:1005A000F0E0EE0FFF1FEF50FE4FA591B491EC91DC
:1005B000ED2381E090E009F480E0DF91CF91089590
:1005C00080E090E0FACF1F93CF93DF93282F30E0A5
:1005D000F901E956FD4F8491F901EF5AFD4FD4918D
:1005E000F901E55FFD4FC491CC23A9F0162F8111CD
:1005F0000E945302EC2FF0E0EE0FFF1FE952FE4F76
:10060000A591B4918FB7F894EC91111108C0D095D1
:10061000DE23DC938FBFDF91CF911F910895DE2BF6
:10062000F8CF1092000381E08093FF021092DA026B
:1006300061E084E10E94E30261E085E10E94E3025F
:10064000E9EBF0E080818E7F808380818D7F8083E5
:1006500088E48093B80085E48093BC000895CF932C
:10066000DF9391E0909390028823B9F0C091B80095
:10067000D091BA008091BC008A7B8093BC0060E07E
:1006800084E10E94E30260E085E10E94E3020E94AF
:100690001103D093BA00C093B800DF91CF910895B1
:1006A000CF93DF9390E0FC01EF5AFD4F2491855FDB
:1006B0009D4FFC0184918823D1F090E0880F991F11
:1006C000FC01E354FE4FA591B491FC01E952FE4FA9
:1006D000C591D49161110EC09FB7F8948C91E22F0F
:1006E000E0958E238C932881E223E8839FBFDF91DE
:1006F000CF9108958FB7F894EC91E22BEC938FBFD4
:10070000F6CF3FB7F89480916A0290916B02A09166
:100710006C02B0916D0226B5A89B05C02F3F19F061
:100720000196A11DB11D3FBFBA2FA92F982F882771
:10073000BC01CD01620F711D811D911D42E0660F4C
:10074000771F881F991F4A95D1F70895CF92DF929E
:10075000EF92FF920F931F93CF93DF93D0912903D2
:1007600081E0D13208F09CC0C09128030E9481032F
:100770006B017C018091000381116CC082E0809349
:10078000000381E08093FF028FEF8093FE021092BE
:10079000FD02D093FC02A8E0B3E0ECEDF2E080E0D3
:1007A000D8138DC01092DB028091DB02CC0FC82BD6
:1007B000C093DB028091DA02813009F084C010928C
:1007C000DA020E9481036B017C018091DB0280933D
:1007D000BB008091020390910303A0910403B091A8
:1007E0000503892B8A2B8B2BA1F00E94810300919A
:1007F00002031091030320910403309105036C1947
:100800007D098E099F09061717072807390708F47D
:1008100042C08091BC0083FDD8CF85EC8093BC00A2
:100820000E9481036B017C0180910003823009F4F6
:100830004CC08091FE028F3F09F469C08091FE0296
:10084000803209F466C08091FE02803309F463C0EF
:1008500084E026C08091020390910303A0910403D9
:10086000B0910503892B8A2B8B2B09F483CF0E942F
:10087000810300910203109103032091040330913E
:1008800005036C197D098E099F09061717072807AC
:10089000390708F06FCF809101030E942F0385E094
:1008A000109207031092290310920603DF91CF9153
:1008B0001F910F91FF90EF90DF90CF9008959D9141
:1008C00091938F5F6DCF85EEA9CF809102039091B8
:1008D0000303A0910403B0910503892B8A2B8B2B72
:1008E00009F4A2CF0E948103009102031091030337
:1008F00020910403309105036C197D098E099F092D
:10090000061717072807390708F08ECFC4CF80E0F5
:10091000C7CF82E0C5CF83E0C3CF0F931F93CF93A0
:10092000DF93162F072FC4EED6E0AA85BB859C85E2
:1009300021E020930603909328031092070310925E
:100940002903ED91FC9111970190F081E02D682F22
:10095000CD0119958A859B85DC01ED91FC91019073
:10096000F081E02D602F19958A859B85DC01ED9142
:10097000FC910190F081E02D612F1995DF91CF91CD
:100980001F910F910C94A6038F929F92AF92BF92EA
:10099000CF92DF92EF92FF924B015C010E948103A4
:1009A0006B017C010E9481036C197D098E099F09EE
:1009B000683E734081059105A8F321E0821A9108F1
:1009C000A108B10888EEC80E83E0D81EE11CF11C16
:1009D00081149104A104B10429F7FF90EF90DF90F6
:1009E000CF90BF90AF909F908F900895AF92BF929D
:1009F000CF92DF92EF92FF920F931F93CF93DF93EB
:100A00006C017B018B01040F151FEB015E01AE1819
:100A1000BF08C017D10759F06991D601ED91FC913B
:100A20000190F081E02DC6011995892B79F7C50158
:100A3000DF91CF911F910F91FF90EF90DF90CF90BA
:100A4000BF90AF900895FC01A089B1898C91A689CF
:100A5000B78982FD0FC09C91818D8F5F8F73228D2E
:100A6000821749F0A18DAE0FBF2FB11D5D969C93EB
:100A7000818F08958C910895FC01538D448D252F0D
:100A800030E0842F90E0821B930B541710F0CF9628
:100A9000089501970895FC01918D828D981761F05A
:100AA000A28DAE0FBF2FB11D5D968C91928D9F5F71
:100AB0009F73928F90E008958FEF9FEF0895FC0150
:100AC000918D828D981731F0828DE80FF11D858D03
:100AD00090E008958FEF9FEF0895FC01918D228D96
:100AE000892F90E0805C9F4F821B91098F7399271B
:100AF000089586E393E00E946D0521E0892B09F4B7
:100B000020E0822F089583ED93E00E946D0521E09F
:100B1000892B09F420E0822F089580E794E00E9459
:100B20006D0521E0892B09F420E0822F0895FC0156
:100B3000A48DA80FB92FB11DA35ABF4F2C91848D3E
:100B400090E001968F739927848FA689B7892C939B
:100B5000A089B1898C91837080648C93938D848DEE
:100B6000981306C00288F389E02D80818F7D8083F1
:100B70000895EF92FF920F931F93CF93DF93EC01B1
:100B800081E0888F9B8D8C8D98131AC0E889F98934
:100B9000808185FF15C09FB7F894EE89FF89608337
:100BA000E889F98980818370806480839FBF81E0B8
:100BB00090E0DF91CF911F910F91FF90EF900895FA
:100BC000F62E0B8D10E00F5F1F4F0F731127E02ED5
:100BD0008C8D8E110CC00FB607FCFACFE889F9890D
:100BE000808185FFF5CFCE010E949705F1CFEB8D77
:100BF000EC0FFD2FF11DE35AFF4FF0829FB7F894E1
:100C00000B8FEA89FB8980818062CFCFCF93DF93FE
:100C1000EC01888D8823B9F0AA89BB89E889F98914
:100C20008C9185FD03C0808186FD0DC00FB607FC49
:100C3000F7CF8C9185FFF2CF808185FFEDCFCE017C
:100C40000E949705E9CFDF91CF910895F0E0E0E0B1
:100C5000199480E090E0892B29F00E948D05811184
:100C60000E94000080E090E0892B49F080E090E055
:100C7000892B29F00E94000081110E9400000E942F
:100C8000830581110E94260680E090E0892B29F0DF
:100C90000E94790581110C94000008958F929F9213
:100CA000AF92BF92CF92DF92EF92FF920F931F937A
:100CB000CF93DF93EC016A017B0120E030E04FE746
:100CC00053E4CB01B6010E94DB114B015C0120E033
:100CD00030E0A9010E94E31218168CF5C501B40199
:100CE0000E94AD128B01B98020E030E0A901C7015C
:100CF000B6010E94E31260E018160CF061E08B2D43
:100D00000E94E3020F3F110509F0ECF41127C8819E
:100D100061E08C2F0E94500301151105B9F460E0C9
:100D20008C2FDF91CF911F910F91FF90EF90DF906B
:100D3000CF90BF90AF909F908F900C94E302C5012D
:100D4000B4019058CDCF0FEF10E0E1CF0F3F110568
:100D500011F461E0E5CFEC2FF0E0E956FD4FE491AE
:100D6000E150E23108F0BCC0F0E08827E554F94FCB
:100D70008F4F0C94A512CD06DE06E306ED06F706AE
:100D800070070107090711071B0725072F073E07F3
:100D90004807700752075C07660784B5806884BD02
:100DA00007BDDF91CF911F910F91FF90EF90DF90E2
:100DB000CF90BF90AF909F908F90089584B5806240
:100DC00084BD08BDEECF8091800080688093800054
:100DD0001093890000938800E4CF809180008062A6
:100DE0008093800010938B0000938A00DACF80916B
:100DF000800088608093800010938D0000938C00A9
:100E0000D0CF8091B00080688093B0000093B30091
:100E1000C8CF8091B00080628093B0000093B4008E
:100E2000C0CF8091900080688093900010939900CB
:100E300000939800B6CF80919000806280939000DC
:100E400010939B0000939A00ACCF80919000886033
:100E50008093900010939D0000939C00A2CF8091FE
:100E6000A00080688093A0008091A0008F7B809379
:100E7000A0001093A9000093A80093CF8091A00038
:100E800080628093A0001093AB000093AA0089CFEA
:100E90008091A00088608093A0001093AD00009323
:100EA000AC007FCF80912001806880932001109357
:100EB00029010093280175CF8091200180628093E1
:100EC000200110932B0100932A016BCF8091200108
:100ED00088608093200110932D0100932C0161CF35
:100EE000003811050CF035CF1ACF8EBD00000DB4BF
:100EF00007FEFDCF8EB50895FC01248131E03093CB
:100F00000603209328031092070310922903848577
:100F1000682B8AE293E00E9424020C94A6030895B1
:100F200090E080E008950F931F93CF93DF938C019F
:100F3000D0E0C0E061E08091E5060E94E30264E653
:100F400070E080E090E00E94C40460E08091E506DB
:100F50000E94E30264E670E080E090E00E94C40436
:100F600021960C171D0731F760E971E080E090E0F1
:100F7000DF91CF911F910F910C94C4040F931F9395
:100F8000CF938C01C62F64600E947C076C2F6B7F0F
:100F9000C8010E947C0783EC90E00197F1F7CF91A4
:100FA0001F910F9108950F931F93CF93DF938C019F
:100FB000C62FD62FD07FD1606D2F0E947C076D2F5A
:100FC000C8010E94BE0780E1C89FE0011124C160F2
:100FD0006C2FC8010E947C076C2FC8010E94BE07BD
:100FE00081E090E0DF91CF911F910F9108954DEC3A
:100FF0005CEC6CEC7EEB8FEF96E00E944E064DECC5
:101000005CEC6CEC7EE38DEF96E00C944E0640E0D9
:1010100050E060E070E88FEF96E00E944E0640E0FE
:1010200050E0BA018DEF96E00C944E0685ED80936A
:10103000BC008091020390910303A0910403B0913E
:1010400005030796A11DB11D23E0B695A7959795B9
:1010500087952A95D1F72091BC0024FD03C01092FA
:10106000000308954091020350910303609104032B
:1010700070910503452B462B472B69F30097A1057B
:10108000B10541F02AE22A95F1F700C00197A109C4
:10109000B109E1CF809101030C942F031F920F92AD
:1010A0000FB60F9211240F900FBE0F901F9018953E
:1010B0001F920F920FB60F9211240BB60F922F931F
:1010C0003F934F935F936F937F938F939F93AF93D0
:1010D000BF93EF93FF938091B900887F803609F426
:1010E0004DC008F040C0883209F4A9C028F580310D
:1010F00009F49DC0C8F4882309F4FBC0883009F4C2
:1011000096C0FF91EF91BF91AF919F918F917F9189
:101110006F915F914F913F912F910F900BBE0F9068
:101120000FBE0F901F901895883109F488C0803247
:1011300041F78093FE0214C0803409F49DC040F44E
:101140008033B9F38833E9F68093FE0285ECB0C0B2
:10115000803509F485C0883509F496C0883489F64D
:101160000E941608CECF883909F48CC038F588372C
:1011700029F050F4883611F0803719F683E0809317
:1011800000031092D70257C0883809F47BC0803919
:1011900019F0803809F0B5CF8091D702803208F07D
:1011A00071C0E091D70281E08E0F8093D7028091C9
:1011B000BB00F0E0E954FD4F80833DC0803B39F037
:1011C000E0F4803A09F479C0883A09F09ACF84E0D3
:1011D000809300031092B4021092B302E091B10226
:1011E000F091B20219958091B30281110FC081E094
:1011F0008093B3021092910209C0803C09F4A6CFFB
:10120000883C09F4A3CF883B09F07BCFE091B4027E
:1012100081E08E0F8093B402F0E0EF56FD4F8081A5
:101220008093BB009091B4028091B30229C0809159
:10123000DB028093BB0085EC8093BC0062CF909171
:10124000FD028091FC02981758F5E091FD0281E0C3
:101250008E0F8093FD02F0E0E452FD4F8081E9CFD4
:10126000E091FD0281E08E0F8093FD028091BB0032
:10127000F0E0E452FD4F80839091FD028091FC02EA
:101280009817C8F285E8D8CFE091FD0281E08E0F73
:101290008093FD028091BB00F0E0E452FD4F80831B
:1012A0008091FF0281115CCF81E08093DA0284EAB1
:1012B0008093BC001092000324CF85EC8093BC0087
:1012C000109200038091D702803230F4E091D7026F
:1012D000F0E0E954FD4F10826091D70270E0E09198
:1012E000B502F091B60287EB92E019951092D70201
:1012F00008CF1092FE0234CF1F920F920FB60F92BA
:1013000011242F933F938F939F93AF93BF9380911B
:10131000660290916702A0916802B09169023091D3
:10132000650223E0230F2D3758F50196A11DB11D4D
:10133000209365028093660290936702A0936802EF
:10134000B093690280916A0290916B02A0916C0245
:10135000B0916D020196A11DB11D80936A02909318
:101360006B02A0936C02B0936D02BF91AF919F91FD
:101370008F913F912F910F900FBE0F901F90189556
:1013800026E8230F0296A11DB11DD2CF1F920F9206
:101390000FB60F9211240BB60F922F933F934F93DA
:1013A0005F936F937F938F939F93AF93BF93EF93CD
:1013B000FF9380915B0290915C02A0915D02B091DD
:1013C0005E02892B8A2B8B2BD1F190915A0280914E
:1013D000000089278093000080915B0290915C025D
:1013E000A0915D02B0915E02181619061A061B063E
:1013F0009CF480915B0290915C02A0915D02B0919F
:101400005E020197A109B10980935B0290935C028F
:10141000A0935D02B0935E02FF91EF91BF91AF91F7
:101420009F918F917F916F915F914F913F912F91FC
:101430000F900BBE0F900FBE0F901F9018958091CC
:101440000002ECEBF1E0E4919FEF90930002E230B8
:10145000E9F040F4EE2389F0E13091F060E00E9481
:10146000E302DACFE43049F110F1E530B9F79091B9
:1014700073009D7F90937300F1CF10926E00EECFBA
:1014800090916F009D7F90936F00E8CF90917000D6
:101490009D7F9093700091E09093B0009091B10087
:1014A000987F94609093B1001092B300D7CF909141
:1014B00071009D7F90937100D1CF909172009D7FBC
:1014C00090937200CBCF1F920F920FB60F92112400
:1014D0000BB60F922F933F934F935F936F937F932E
:1014E0008F939F93AF93BF93EF93FF9386E393E024
:1014F0000E949705FF91EF91BF91AF919F918F91BE
:101500007F916F915F914F913F912F910F900BBE03
:101510000F900FBE0F901F9018951F920F920FB64D
:101520000F9211240BB60F922F933F934F935F931B
:101530006F937F938F939F93AF93BF93EF93FF939B
:1015400086E393E00E942305FF91EF91BF91AF9155
:101550009F918F917F916F915F914F913F912F91CB
:101560000F900BBE0F900FBE0F901F9018951F92FB
:101570000F920FB60F9211240BB60F922F933F9339
:101580004F935F936F937F938F939F93AF93BF938B
:10159000EF93FF9383ED93E00E949705FF91EF9106
:1015A000BF91AF919F918F917F916F915F914F917B
:1015B0003F912F910F900BBE0F900FBE0F901F9079
:1015C00018951F920F920FB60F9211240BB60F921F
:1015D0002F933F934F935F936F937F938F939F933B
:1015E000AF93BF93EF93FF9383ED93E00E942305A6
:1015F000FF91EF91BF91AF919F918F917F916F91EB
:101600005F914F913F912F910F900BBE0F900FBEA6
:101610000F901F9018951F920F920FB60F921124E2
:101620000BB60F922F933F934F935F936F937F93DC
:101630008F939F93AF93BF93EF93FF9380E794E0D3
:101640000E949705FF91EF91BF91AF919F918F916C
:101650007F916F915F914F913F912F910F900BBEB2
:101660000F900FBE0F901F9018951F920F920FB6FC
:101670000F9211240BB60F922F933F934F935F93CA
:101680006F937F938F939F93AF93BF93EF93FF934A
:1016900080E794E00E942305FF91EF91BF91AF9105
:1016A0009F918F917F916F915F914F913F912F917A
:1016B0000F900BBE0F900FBE0F901F9018951F92AA
:1016C0000F920FB60F9211240BB60F922F933F93E8
:1016D0004F935F936F937F938F939F93AF93BF933A
:1016E000EF93FF9380910E050E94BA02209112059C
:1016F000309113052F5F3F4F309313052093120550
:1017000090911105953618F096E090930D05909103
:101710000D05943009F466C0B8F49230F1F09330BE
:1017200009F444C090911005992309F46BC081110C
:101730007CC080910F05882309F463C080910F0558
:1017400061E00E94E3025EC0953009F457C0963014
:1017500049F791E09093DE054FC08111E3CF2091CE
:101760001205309113052436310528F41092130523
:1017700010921205D7CF1092DE0510921105E0915C
:10178000110591E09E0F90931105F0E02091120554
:1017900030911305EE0FFF1FE35FFA4F3087278369
:1017A000109213051092120593E019C0813009F0D0
:1017B000B9CFE091110591E09E0F90931105F0E0F3
:1017C0002091120530911305EE0FFF1FE35FFA4FD2
:1017D00030872783109213051092120594E090939E
:1017E0000D05A0CF882359F22091120530911305E1
:1017F0002536310508F496CF95E0F1CF811192CFCF
:10180000B5CF2F9AFF91EF91BF91AF919F918F919B
:101810007F916F915F914F913F912F910F900BBEF0
:101820000F900FBE0F901F90189580910F05882381
:1018300021F080910F0560E084CF2F98E3CF1F92B5
:101840000F920FB60F9211240BB60F922F933F9366
:101850004F935F936F937F938F939F93AF93BF93B8
:10186000CF93DF93EF93FF9380915902C0911B06B2
:10187000D0E087FF23C010928500109284008091F1
:1018800059028F5F8093590280915902082E000CF3
:10189000990B8C179D0724F4809159028C3074F1B8
:1018A000809184009091850084349C4908F465C03F
:1018B0008091840090918500049661C080915902C6
:1018C000082E000C990B8C179D07CCF6309159020D
:1018D00025E03203F0011124E152FA4F808186FFA6
:1018E000CECF309159023203F0011124E152FA4F68
:1018F000808160E08F730E94E302C1CF80918400F9
:10190000909185003091590225E03203F0011124B5
:10191000E152FA4F41815281840F951F90938900C3
:1019200080938800309159023203F0011124E15272
:10193000FA4F808186FF0CC0309159023203F001CA
:101940001124E152FA4F808161E08F730E94E3021B
:10195000FF91EF91DF91CF91BF91AF919F918F91C7
:101960007F916F915F914F913F912F910F900BBE9F
:101970000F900FBE0F901F90189580E49CE99093F4
:101980008900809388008FEF80935902E1CF1092F5
:101990002D0310922C0388EE93E0A0E0B0E080933A
:1019A0002E0390932F03A0933003B093310323E1D0
:1019B00032E030932B0320932A03109239031092C4
:1019C000380380933A0390933B03A0933C03B09376
:1019D0003D0325E232E0309337032093360345E39D
:1019E00051E0509343034093420344E351E050934A
:1019F00045034093440340E351E050934703409331
:101A0000460341E351E0509349034093480342E3C6
:101A100051E050934B0340934A0346E351E0509307
:101A20004D0340934C0310924F03109250031092B9
:101A30005103109252031092D6031092D503809353
:101A4000D7039093D803A093D903B093DA033093CC
:101A5000D4032093D30345ED50E05093E00340932B
:101A6000DF0344ED50E05093E2034093E10340ED87
:101A700050E05093E4034093E30341ED50E0509372
:101A8000E6034093E50342ED50E05093E8034093B2
:101A9000E70346ED50E05093EA034093E9031092C8
:101AA000EC031092ED031092EE031092EF031092EC
:101AB0007304109272048093740490937504A0933D
:101AC0007604B0937704309371042093700485EC0E
:101AD00090E090937D0480937C0484EC90E090935C
:101AE0007F0480937E0480EC90E090938104809347
:101AF000800481EC90E0909383048093820482ECD4
:101B000090E0909385048093840486EC90E0909319
:101B10008704809386041092890410928A0410929C
:101B20008B0410928C048091070290910802A0917E
:101B30000902B0910A028093050790930607A093CB
:101B40000707B093080780910B0290910C02A091B7
:101B50000D02B0910E028093090790930A07A0939B
:101B60000B07B0930C0784E080930D0787E0809308
:101B70000E0710920F0784EB8093100786E1809385
:101B8000110788E18093120787E18093130789E1A9
:101B900080931407E0911B06EC3008F4AAC08FEF85
:101BA00080931507E0911B06EC3008F4B3C08FEF6B
:101BB000809316078CE08093E40684E28093E50628
:101BC00086E08093E60685E08093E7068FE18093C8
:101BD000E8068EE18093E90683E28093EA0682E2DA
:101BE0008093EB0685E48093EC0684E48093ED0615
:101BF00080E48093F0061092F5061092F60610929B
:101C0000F7061092F8061092F9061092FA06109252
:101C1000FB061092FC06E6E2F6E024EE36E08FEFDB
:101C20009FEFDC01128213821482158216821782C2
:101C30001086118683879487A587B6878787908BC0
:101C4000A18BB28B12861182108273962E173F07DA
:101C500049F78DE090E00E94E812FC0113821282A5
:101C600087E392E091838083118687E2848384E115
:101C7000828784E083871486F0932306E09322060C
:101C8000109224061092250685E280930E0510928C
:101C9000100510921D0610921C0610921F0610923D
:101CA0001E06109221061092200661E070E090E07E
:101CB00080E00E940D140097F1F190931D0680932F
:101CC0001C0610921F0610921E06209120063091CD
:101CD0002106232B11F4FC01108210922106109290
:101CE00020066FE372E080911C0690911D060C9413
:101CF000F71481E08E0F80931B06E093150785E0B3
:101D0000E89FF0011124E152FA4F88EB9BE09283A7
:101D1000818348CF81E08E0F80931B06E0931607E6
:101D200085E0E89FF0011124E152FA4F88EB9BE037
:101D3000928381833FCF80911C0690911D0600976E
:101D400011F00E94841310921D0610921C0610922E
:101D500021061092200610921F0610921E0608956A
:101D6000789484B5826084BD84B5816084BD85B576
:101D7000826085BD85B5816085BD80916E00816082
:101D800080936E0010928100809181008260809328
:101D9000810080918100816080938100809180002A
:101DA0008160809380008091B10084608093B10055
:101DB0008091B00081608093B0008091910082603A
:101DC0008093910080919100816080939100809137
:101DD00090008160809390008091A1008260809348
:101DE000A1008091A10081608093A1008091A0005A
:101DF00081608093A0008091210182608093210105
:101E00008091210181608093210180912001816076
:101E10008093200180917A00846080937A00809181
:101E20007A00826080937A0080917A00816080934A
:101E30007A0080917A00806880937A001092C100C5
:101E4000E0918004F091810482E08083E0917C0441
:101E5000F0917D041082E0917E04F0917F048FEC7C
:101E6000808310928804E0918404F091850486E0D8
:101E70008083E0918204F09183048081806180837B
:101E8000E0918204F0918304808188608083E091F6
:101E90008204F0918304808180688083E0918204D1
:101EA000F091830480818F7D808361E08091E506DD
:101EB0000E94500360E08091E5060E94E30260E02A
:101EC0008091E4060E9450038AE293E09093EF062B
:101ED0008093EE0610928F0210928E0210920703EA
:101EE000109229030E9411038BEC91E09093B202AF
:101EF0008093B1028CEC91E09093B6028093B5028E
:101F000080E090E1A0E0B0E08093F1069093F206CB
:101F1000A093F306B093F4068AE090E0A0E0B0E06E
:101F20008093F5069093F606A093F706B093F80613
:101F300080E090E0A0E0B0E48093F9069093FA0688
:101F4000A093FB06B093FC0660E070E185E00E9480
:101F50008D046FE979E380E00E948D0406EE16E0BF
:101F6000C4EED6E060E4A62E62E0B62E76E8872EB8
:101F700072E0972EEBECEE2EE7E0FE2EFBE8CF2E84
:101F8000DD24D394F801928181918F01898F9A8FFA
:101F900061E00E94500361E08A8D0E945003F801C5
:101FA000958183818D8F9E8F61E00E94500360E058
:101FB0008E8D0E94500361E08D8D0E94E3027FB6FA
:101FC000F89480915F02811125C0F5018491F4019C
:101FD0009491E82FF0E0EE0FFF1FE354FE4FA59120
:101FE000B4918C91982321F461E085E30E94E3028F
:101FF00061E085E30E9450038CB580618CBD8CB597
:1020000080648CBD61E084E30E94500361E083E35F
:102010000E94500380915F028F5F80935F027FBEBA
:10202000C7010197F1F760E08D8D0E94E30288E817
:102030000E94750783E00E94750761E08D8D0E9404
:10204000E302C7010197F1F760E08D8D0E94E30282
:1020500088E90E94750780E00E94750780E00E9471
:10206000750780E00E94750780E00E94750761E0B7
:102070008D8D0E94E302C6010197F1F760E08D8D1E
:102080000E94E30280EE0E94750761E08D8D0E9440
:10209000E3022296F6E0C83EDF0709F073CF09E0BD
:1020A00017E0C5E0D7E060E0F80181918F010E9460
:1020B0005003F7E00D301F07B1F705E017E025E00A
:1020C000F22E3CE0D32E42E0E42E88898C3008F0DA
:1020D00043C0C88461E08C2D0E9450038889F89E1B
:1020E000F0011124E152FA4F2C2D2F739081907C36
:1020F000922B9083138214826D2D0E9499128D9DD4
:10210000A001112430E020E0BA01620F731FF69E97
:10211000F001F79EF00D1124E152FA4F908196FDE7
:1021200012C02F5F3F4F2C30310571F781110BC06A
:1021300010928000E092810010928500109284003D
:10214000E6BAE0926F00E889FE9EF0011124E152A8
:10215000FA4F8081806480839E858C85F801828B14
:10216000938B60E00E94500361E0F80183890E9434
:10217000500360E0F80183890E94E30221960E5F1C
:102180001F4FF7E009301F0709F09FCFF894109216
:10219000200189E08093210180E293E0909329015E
:1021A00080932801109225011092240182E08093EF
:1021B0007300789480930D051092110580910E059F
:1021C00060E00E94500360E080E30E94500360E002
:1021D00081E30E94500364E670E080E090E00E949A
:1021E000C40483E090E00E94930783E0E82EF12C82
:1021F00094E0C92ED12CC0916302D0916402D09397
:102200006202C093610280910C070E94BA02892B7E
:1022100069F0209709F043C082E090E00E949307A4
:1022200081E090E0909364028093630280E30E94D7
:10223000BA028C0181E00115110509F480E0809358
:10224000600281E30E94BA0220916302309164022D
:102250001216130664F4012B09F471C0892B09F4DA
:1022600073C081E090E09093640280936302809158
:10227000630290916402C817D907D1F00E94070841
:1022800062E370E080E090E00E94C40468EC70E0DB
:1022900080E090E00E94C4040E942906ACCF81E057
:1022A00090E00E9493071092640210926302BECFE6
:1022B000C230D10531F16CF42097E9F02197F1F0AB
:1022C0000E94F70781E090E090936402809363029C
:1022D000DDCFC330D10531F1249791F74DEC5CECA3
:1022E0006CE47EE38FEF96E00E944E064DEC5CECD2
:1022F0006CE47EE312C00E940708C8CF0E94F70773
:10230000C5CF4DEC5CEC6CE47EE38FEF96E00E9471
:102310004E064DEC5CEC6CEC7EEB8DEF96E00E9493
:102320004E06B4CF4DEC5CEC6CE47EEB8FEF96E0A8
:102330000E944E064DEC5CEC6CE47EEBEECF892BFC
:1023400041F482E090E08FCFD0926402C0926302A9
:102350008ECFF0926402E092630289CF80911C06D6
:1023600090911D06009711F00C9484130895990F15
:102370000008550FAA0BE0E8FEEF16161706E8074F
:10238000F907C0F012161306E407F50798F0621B70
:10239000730B840B950B39F40A2661F0232B242B45
:1023A000252B21F408950A2609F4A140A6958FEF64
:1023B000811D811D08950E94EE110C945F120E94F0
:1023C000511238F00E94581220F0952311F00C940D
:1023D00048120C944E1211240C9493120E94701205
:1023E00070F3959FC1F3950F50E0551F629FF00168
:1023F000729FBB27F00DB11D639FAA27F00DB11D81
:10240000AA1F649F6627B00DA11D661F829F222709
:10241000B00DA11D621F739FB00DA11D621F839F90
:10242000A00D611D221F749F3327A00D611D231F66
:10243000849F600D211D822F762F6A2F11249F57B4
:1024400050409AF0F1F088234AF0EE0FFF1FBB1FB7
:10245000661F771F881F91505040A9F79E3F510576
:1024600080F00C9448120C9493125F3FE4F3983E72
:10247000D4F3869577956795B795F795E7959F5F20
:10248000C1F7FE2B880F911D9695879597F90895B2
:1024900097F99F6780E870E060E008959FEF80EC17
:1024A000089500240A9416161706180609060895BA
:1024B00000240A9412161306140605060895092E20
:1024C0000394000C11F4882352F0BB0F40F4BF2B8F
:1024D00011F460FF04C06F5F7F4F8F4F9F4F0895CF
:1024E00057FD9058440F551F59F05F3F71F04795C5
:1024F000880F97FB991F61F09F3F79F087950895AA
:10250000121613061406551FF2CF4695F1DF08C0C8
:10251000161617061806991FF1CF869571056105E5
:1025200008940895E894BB2766277727CB0197F98D
:102530000895991B79E004C0991F961708F0961B1F
:10254000881F7A95C9F780950895EE0FFF1F881FA1
:102550008BBF0790F691E02D19940E94B4126894F5
:10256000B1110C94931208950E94781288F09F572D
:1025700098F0B92F9927B751B0F0E1F0660F771FA7
:10258000881F991F1AF0BA95C9F714C0B13091F09D
:102590000E949212B1E008950C949212672F782F46
:1025A0008827B85F39F0B93FCCF386957795679562
:1025B000B395D9F73EF490958095709561957F4FCE
:1025C0008F4F9F4F08950E94B71108F48FEF089521
:1025D0000F931F93CF93DF938230910510F482E025
:1025E00090E0E0911D07F0911E0730E020E0B0E0A0
:1025F000A0E0309799F42115310509F44AC0281B51
:10260000390B24303105D8F58A819B81611571051C
:1026100089F1FB0193838283FE0111C040815181C6
:102620000281138148175907E0F04817590799F4B8
:10263000109761F012960C93129713961C93329692
:10264000CF01DF91CF911F910F91089500931D0746
:1026500010931E07F4CF2115310551F0421753078F
:1026600038F0A901DB019A01BD01DF01F801C1CFFA
:10267000EF01F9CF90931E0780931D07CDCFFE0188
:10268000E20FF31F819391932250310939832883FC
:10269000D7CF20911B0730911C07232B41F42091A9
:1026A00003023091040230931C0720931B072091F2
:1026B0000102309102022115310541F42DB73EB7D8
:1026C0004091050250910602241B350BE0911B0737
:1026D000F0911C07E217F307A0F42E1B3F0B2817FD
:1026E000390778F0AC014E5F5F4F2417350748F08B
:1026F0004E0F5F1F50931C0740931B0781939193CC
:102700009FCFF0E0E0E09CCFCF93DF930097E9F01C
:10271000FC01329713821282A0911D07B0911E070F
:10272000ED0130E020E01097A1F420813181820F8B
:10273000931F20911B0730911C072817390709F0B8
:1027400061C0F0931C07E0931B07DF91CF910895C0
:10275000EA01CE17DF07E8F54A815B819E0141154A
:102760005105B1F7E901FB83EA8349915991C40FFF
:10277000D51FEC17FD0761F4808191810296840FCB
:10278000951FE90199838883828193819B838A8342
:10279000F0E0E0E012968D919C9113970097B9F5C7
:1027A0002D913C911197CD010296820F931F20919C
:1027B0001B0730911C072817390739F6309751F558
:1027C00010921E0710921D07B0931C07A0931B07C1
:1027D000BCCFD383C28340815181840F951FC8171A
:1027E000D90761F44E5F5F4F88819981480F591F67
:1027F000518340838A819B81938382832115310594
:1028000009F0B0CFF0931E07E0931D079ECFFD01A6
:10281000DC01C0CF13821282D7CF4F925F926F92AA
:102820007F928F929F92AF92BF92CF92DF92EF9260
:10283000FF920F931F93CF93DF938C01009799F42E
:10284000CB01DF91CF911F910F91FF90EF90DF901F
:10285000CF90BF90AF909F908F907F906F905F9040
:102860004F900C94E812FC01E60FF71F9C012250D8
:102870003109E217F30708F4AEC0D901CD91DC911C
:102880001197C617D70720F1C530D10578F0CE01D2
:1028900004978617970750F0C61BD70B2297C19352
:1028A000D1936D937C93CF010E948413C801DF9173
:1028B000CF911F910F91FF90EF90DF90CF90BF903D
:1028C000AF909F908F907F906F905F904F90089502
:1028D0005B01AC1ABD0A4C018C0E9D1EA0911D0718
:1028E000B0911E07512C412CF12CE12C109731F5A1
:1028F00080911B0790911C078815990509F05CC011
:102900004616570608F058C08091010290910202C5
:10291000009741F48DB79EB7409105025091060291
:10292000841B950BE817F90708F055C0F0931C07B6
:10293000E0931B07F90171836083B8CF8D919C915F
:10294000119712966C90129713967C901397A81576
:10295000B90559F56C0142E0C40ED11CCA14DB0460
:1029600020F1AC014A195B09DA011296159780F043
:102970006282738251834083D9016D937C93E11409
:10298000F10471F0D7011396FC93EE9312978ECF5A
:1029900022968C0F9D1FF90191838083F301EFCF65
:1029A000F0931E07E0931D0781CF4816590608F4DF
:1029B0002C017D01D3019ACFCB010E94E8127C014A
:1029C000009749F0AE01B8010E94EE14C8010E94C0
:1029D000841387016BCF10E000E068CFFB01DC01BE
:1029E00002C001900D9241505040D8F70895FB016C
:1029F000DC0101900D920020E1F7089511E0C0E79D
:102A0000D1E000E006C0802FFE010E94A5122196B1
:102A1000011DC137D10780E00807A9F7F894FFCF5F
:102A2000FF00001F078000363738391B1D1A1C00B5
:102A30000000002402F7019007CD01F001DD01CE76
:102A40000100000000B905F6043C0506066D054BC3
:102A5000055F0500000000D307F60490078F07000C
:00000001FF
