:100000000C944F010C9480010C9480010C9480019D
:100010000C9480010C9480010C9480010C9480015C
:100020000C9480010C9460060C9460060C9460069D
:100030000C9480010C94D8070C9480010C948001DE
:100040000C9480010C94520A0C9480010C94800151
:100050000C9480010C9480010C9480010C948E0708
:100060000C9480010C9447090C941D090C94800198
:100070000C9480010C9480010C9480010C948001FC
:100080000C9480010C9480010C9480010C948001EC
:100090000C9480010C9480010C9480010C946A06ED
:1000A0000C9480010C9480010C9480010C948001CC
:1000B0000C9480010C9480010C9480010C947109C3
:1000C0000C9480010C9480010C9480010C94F30832
:1000D0000C94C9080C9480010C949F080C9475082A
:1000E0000C9480010C9494020C948A020C94D50117
:1000F0000C945D020C94A9010C94BB010C94AB010F
:100100000C94AC010C9464020C947C020C94780264
:100110000C9459020C94AA010C94CE010C94EB059A
:100120000C94CE040C94E2040C948F020C94F00412
:100130000C9489050C94BF040C9402020C94610287
:100140000C9474020C943D0F0C9490020C94860253
:100150000C9455020C94FA0A0C944F020C94040669
:100160000C94EC050C946E020C9482020C946A02BE
:100170000C9479040C943C05000020002300260018
:1001800029002C002F0032000001000003010601AD
:1001900009010200002100240027002A002D003060
:1001A00000330001010000040107010A01000022E0
:1001B00000250028002B002E003100340002010031
:1001C00000050108010B01050505050705080808DC
:1001D00008020202020A0A080804040404010101D8
:1001E00001010101010303030303030303040707E0
:1001F000070C0C0C0C0C0C0C0C020202020606067E
:1002000006060606060B0B0B0B0B0B0B0B01021065
:100210002020080810204010204080020102010820
:1002200004020101020408102040808040201008D0
:100230000402018004020180402010080402010829
:100240000402010102040810204080010204081089
:1002500020408000000A0B02090C0D0E0807030461
:10026000010000000000000000000000000000008D
:10027000000000000000000000000000000000126C
:10028000111000000000000000000000000000004D
:1002900000000000000000000000FA0A3D0F1124D9
:1002A0001FBECFEFD1E2DEBFCDBF00E00CBF12E03A
:1002B000A0E0B2E0E4E0F3E200E00BBF02C0079090
:1002C0000D92A034B107D9F727E0A0E4B2E001C055
:1002D0001D92AA31B207E1F711E0CEE4D1E000E0CF
:1002E00006C021970109802FFE010E94520FCD34D4
:1002F000D10780E00807A9F70E94E30C0C94701165
:100300000C9400002091AE02260F3327331F2132B8
:100310003105ECF42091FB02FC0190E080E02430F8
:1003200069F082E00895A091AE022191AC0144579A
:100330005D4FA40FB52FB11D2C930196861798F32E
:100340008091AE02680F6093AE0280E0089581E074
:100350000895089508950895E0918A028091890290
:10036000E81730F4F0E0E759FD4F808190E0089500
:100370008FEF9FEF089590918A02809189022FEF6D
:100380003FEF981748F4E92FF0E0E759FD4F20813F
:1003900030E09F5F90938A02C9010895809189029D
:1003A00090918A02891B990B0895CF92DF92EF9268
:1003B000FF920F931F93CF93DF937C01CB018A01B0
:1003C00020910103222389F0EB016B01C40ED51E9D
:1003D000CC15DD0569F06991D701ED91FC91019093
:1003E000F081E02DC7011995F3CF642F0E9482019F
:1003F000C801DF91CF911F910F91FF90EF90DF9097
:10040000CF900895CF93DF931F92CDB7DEB7698366
:10041000209101032223F9F020912403203258F087
:1004200021E030E0FC013383228390E080E00F90F4
:10043000DF91CF91089580910203E82FF0E0ED5F06
:10044000FC4F998190838F5F8093020380932403F4
:1004500081E090E0ECCF61E0CE0101960E94820144
:10046000F7CF8150823108F05AC0E82FF0E088279A
:10047000E35CFD4F8F4F0C94520F5D0261024F02FF
:10048000550259028F0264026A026E0274027802F7
:100490007C02820286028F028A029002940280917C
:1004A00080008F77809380000895809180008F7DF9
:1004B000F9CF80918000877FF5CF84B58F7784BD99
:1004C000089584B58F7DFBCF8091B0008F778093A6
:1004D000B00008958091B0008F7DF9CF8091900099
:1004E0008F77809390000895809190008F7DF9CF51
:1004F00080919000877FF5CF8091A0008F778093C7
:10050000A00008958091A0008F7DF9CF8091A00078
:10051000877FF5CF809120018F7780932001089508
:10052000809120018F7DF9CF80912001877FF5CFC9
:100530001F93CF93DF93282F30E0F901ED5AFD4F41
:100540008491F901E35FFD4FD491F901E953FE4F26
:10055000C491CC23A9F0162F81110E943102EC2FF7
:10056000F0E0EE0FFF1FE355FE4FA591B4918FB75A
:10057000F894EC91111108C0D095DE23DC938FBF65
:10058000DF91CF911F910895DE2BF8CF1092FB02DF
:1005900081E08093FA021092D50261E084E10E942A
:1005A000980261E085E10E949802E9EBF0E0808129
:1005B0008E7F808380818D7F808388E48093B800E4
:1005C00085E48093BC000895CF93DF9391E09093EE
:1005D0008B028823B9F0C091B800D091BA00809105
:1005E000BC008A7B8093BC0060E084E10E9498029A
:1005F00060E085E10E9498020E94C602D093BA0092
:10060000C093B800DF91CF910895CF93DF9390E02E
:10061000FC01E35FFD4F249189539E4FFC018491BF
:100620008823D1F090E0880F991FFC01ED56FE4F12
:10063000A591B491FC01E355FE4FC591D491611190
:100640000EC09FB7F8948C91E22FE0958E238C9387
:100650002881E223E8839FBFDF91CF9108958FB770
:10066000F894EC91E22BEC938FBFF6CF3FB7F89460
:100670008091650290916602A0916702B091680234
:1006800026B5A89B05C02F3F19F00196A11DB11DED
:100690003FBFBA2FA92F982F8827BC01CD01620F29
:1006A000711D811D911D42E0660F771F881F991FE4
:1006B0004A95D1F70895CF92DF92EF92FF920F9370
:1006C0001F93CF93DF93D091240381E0D13208F0C0
:1006D0009CC0C09123030E9436036B017C01809172
:1006E000FB0281116CC082E08093FB0281E0809369
:1006F000FA028FEF8093F9021092F802D093F7027A
:10070000A3E0B3E0E7EDF2E080E0D8138DC01092F3
:10071000D6028091D602CC0FC82BC093D60280910E
:10072000D502813009F084C01092D5020E943603B0
:100730006B017C018091D6028093BB008091FD0209
:100740009091FE02A091FF02B0910003892B8A2BA9
:100750008B2BA1F00E9436030091FD021091FE0246
:100760002091FF02309100036C197D098E099F09C9
:10077000061717072807390708F442C08091BC0004
:1007800083FDD8CF85EC8093BC000E9436036B01BB
:100790007C018091FB02823009F44CC08091F90207
:1007A0008F3F09F469C08091F902803209F466C074
:1007B0008091F902803309F463C084E026C08091FF
:1007C000FD029091FE02A091FF02B0910003892BDF
:1007D0008A2B8B2B09F483CF0E9436030091FD02F4
:1007E0001091FE022091FF02309100036C197D09E7
:1007F0008E099F09061717072807390708F06FCFDA
:100800008091FC020E94E40285E0109202031092A3
:10081000240310920103DF91CF911F910F91FF905C
:10082000EF90DF90CF9008959D9191938F5F6DCF62
:1008300085EEA9CF8091FD029091FE02A091FF026A
:10084000B0910003892B8A2B8B2B09F4A2CF0E9435
:1008500036030091FD021091FE022091FF023091BB
:1008600000036C197D098E099F09061717072807D1
:10087000390708F08ECFC4CF80E0C7CF82E0C5CF64
:1008800083E0C3CF0F931F93CF93DF93162F072FD0
:10089000CFEDD6E0AA85BB859C8521E0209301039E
:1008A000909323031092020310922403ED91FC9184
:1008B00011970190F081E02D682FCD0119958A855F
:1008C0009B85DC01ED91FC910190F081E02D602F82
:1008D00019958A859B85DC01ED91FC910190F08151
:1008E000E02D612F1995DF91CF911F910F910C94FD
:1008F0005B03AF92BF92CF92DF92EF92FF920F9382
:100900001F93CF93DF936C017B018B01040F151FA5
:10091000EB015E01AE18BF08C017D10759F069910D
:10092000D601ED91FC910190F081E02DC601199561
:10093000892B79F7C501DF91CF911F910F91FF901E
:10094000EF90DF90CF90BF90AF900895FC01A08909
:10095000B1898C91A689B78982FD0FC09C91818D48
:100960008F5F8F73228D821749F0A18DAE0FBF2F3D
:10097000B11D5D969C93818F08958C910895FC0123
:10098000538D448D252F30E0842F90E0821B930BF4
:10099000541710F0CF96089501970895FC01918D9A
:1009A000828D981761F0A28DAE0FBF2FB11D5D969D
:1009B0008C91928D9F5F9F73928F90E008958FEF3F
:1009C0009FEF0895FC01918D828D981731F0828DF3
:1009D000E80FF11D858D90E008958FEF9FEF08954A
:1009E000FC01918D228D892F90E0805C9F4F821BAE
:1009F00091098F739927089581E393E00E94F00491
:100A000021E0892B09F420E0822F08958EEC93E0F9
:100A10000E94F00421E0892B09F420E0822F089540
:100A20008BE694E00E94F00421E0892B09F420E099
:100A3000822F0895FC01A48DA80FB92FB11DA35AD0
:100A4000BF4F2C91848D90E001968F739927848FEE
:100A5000A689B7892C93A089B1898C918370806411
:100A60008C93938D848D981306C00288F389E02DB2
:100A700080818F7D80830895EF92FF920F931F9363
:100A8000CF93DF93EC0181E0888F9B8D8C8D981341
:100A90001AC0E889F989808185FF15C09FB7F8944D
:100AA000EE89FF896083E889F98980818370806499
:100AB00080839FBF81E090E0DF91CF911F910F91E4
:100AC000FF90EF900895F62E0B8D10E00F5F1F4FF3
:100AD0000F731127E02E8C8D8E110CC00FB607FC02
:100AE000FACFE889F989808185FFF5CFCE010E9490
:100AF0001A05F1CFEB8DEC0FFD2FF11DE35AFF4FDF
:100B0000F0829FB7F8940B8FEA89FB89808180621D
:100B1000CFCFCF93DF93EC01888D8823B9F0AA89DA
:100B2000BB89E889F9898C9185FD03C0808186FDA8
:100B30000DC00FB607FCF7CF8C9185FFF2CF8081F7
:100B400085FFEDCFCE010E941A05E9CFDF91CF914D
:100B50000895F0E0E0E0199480E090E0892B29F01E
:100B60000E94100581110E94000080E090E0892B16
:100B700049F080E090E0892B29F00E94000081116B
:100B80000E9400000E94060581110E94A90580E0D4
:100B900090E0892B29F00E94FC0481110C94000044
:100BA00008958EBD00000DB407FEFDCF8EB50895EB
:100BB000FC01248131E03093010320932303109240
:100BC0000203109224038485682B85E293E00E943F
:100BD00002020C945B03089590E080E008950F9367
:100BE0001F93CF938C01C62F64600E94D8056C2F91
:100BF0006B7FC8010E94D80583EC90E00197F1F764
:100C0000CF911F910F9108950F931F93CF93DF936F
:100C10008C01C62FD62FD07FD1606D2F0E94D805B2
:100C20006D2FC8010E94EF0580E1C89FE0011124EB
:100C3000C1606C2FC8010E94D8056C2FC8010E94AA
:100C4000EF0581E090E0DF91CF911F910F91089522
:100C500085ED8093BC008091FD029091FE02A091F1
:100C6000FF02B09100030796A11DB11D23E0B695C8
:100C7000A795979587952A95D1F72091BC0024FDDB
:100C800003C01092FB0208954091FD025091FE02B4
:100C90006091FF0270910003452B462B472B69F3AF
:100CA0000097A105B10541F02AE22A95F1F700C0AD
:100CB0000197A109B109E1CF8091FC020C94E402F3
:100CC0001F920F920FB60F9211240F900FBE0F902C
:100CD0001F9018951F920F920FB60F9211240BB60A
:100CE0000F922F933F934F935F936F937F938F93C5
:100CF0009F93AF93BF93EF93FF938091B900887F49
:100D0000803609F44DC008F040C0883209F4A9C00B
:100D100028F5803109F49DC0C8F4882309F4FBC08C
:100D2000883009F496C0FF91EF91BF91AF919F91E8
:100D30008F917F916F915F914F913F912F910F9084
:100D40000BBE0F900FBE0F901F901895883109F4BD
:100D500088C0803241F78093F90214C0803409F4CE
:100D60009DC040F48033B9F38833E9F68093F902EB
:100D700085ECB0C0803509F485C0883509F496C08B
:100D8000883489F60E942806CECF883909F48CC0B1
:100D900038F5883729F050F4883611F0803719F685
:100DA00083E08093FB021092D20257C0883809F486
:100DB0007BC0803919F0803809F0B5CF8091D2021C
:100DC000803208F071C0E091D20281E08E0F8093F2
:100DD000D2028091BB00F0E0EE54FD4F80833DC015
:100DE000803B39F0E0F4803A09F479C0883A09F0A0
:100DF0009ACF84E08093FB021092AF021092AE0271
:100E0000E091AC02F091AD0219958091AE02811192
:100E10000FC081E08093AE0210928C0209C0803C2A
:100E200009F4A6CF883C09F4A3CF883B09F07BCF17
:100E3000E091AF0281E08E0F8093AF02F0E0E457C3
:100E4000FD4F80818093BB009091AF028091AE02F4
:100E500029C08091D6028093BB0085EC8093BC00B2
:100E600062CF9091F8028091F702981758F5E091BF
:100E7000F80281E08E0F8093F802F0E0E952FD4F16
:100E80008081E9CFE091F80281E08E0F8093F80233
:100E90008091BB00F0E0E952FD4F80839091F80211
:100EA0008091F7029817C8F285E8D8CFE091F80250
:100EB00081E08E0F8093F8028091BB00F0E0E95250
:100EC000FD4F80838091FA0281115CCF81E0809395
:100ED000D50284EA8093BC001092FB0224CF85ECFB
:100EE0008093BC001092FB028091D202803230F4D9
:100EF000E091D202F0E0EE54FD4F10826091D202F8
:100F000070E0E091B002F091B10282EB92E01995AD
:100F10001092D20208CF1092F90234CF1F920F9292
:100F20000FB60F9211242F933F938F939F93AF93FC
:100F3000BF938091610290916202A0916302B0918F
:100F400064023091600223E0230F2D3758F501969B
:100F5000A11DB11D209360028093610290936202F3
:100F6000A0936302B093640280916502909166023F
:100F7000A0916702B09168020196A11DB11D8093F6
:100F8000650290936602A0936702B0936802BF91D6
:100F9000AF919F918F913F912F910F900FBE0F9026
:100FA0001F90189526E8230F0296A11DB11DD2CFE0
:100FB0001F920F920FB60F9211240BB60F922F9320
:100FC0003F934F935F936F937F938F939F93AF93D1
:100FD000BF93EF93FF9380915B0290915C02A0918D
:100FE0005D02B0915E02892B8A2B8B2BD1F19091FF
:100FF0005A028091000089278093000080915B0253
:1010000090915C02A0915D02B0915E0218161906E3
:101010001A061B069CF480915B0290915C02A091E1
:101020005D02B0915E020197A109B10980935B0254
:1010300090935C02A0935D02B0935E02FF91EF91EA
:10104000BF91AF919F918F917F916F915F914F91E0
:101050003F912F910F900BBE0F900FBE0F901F90DE
:10106000189580910002E2E9F1E0E4919FEF9093FE
:101070000002E230E9F040F4EE2389F0E13091F033
:1010800060E00E949802DACFE43049F110F1E530D7
:10109000B9F7909173009D7F90937300F1CF1092F8
:1010A0006E00EECF90916F009D7F90936F00E8CF20
:1010B000909170009D7F9093700091E09093B000AC
:1010C0009091B100987F94609093B1001092B3001A
:1010D000D7CF909171009D7F90937100D1CF909167
:1010E00072009D7F90937200CBCF1F920F920FB62C
:1010F0000F9211240BB60F922F933F934F935F9350
:101100006F937F938F939F93AF93BF93EF93FF93CF
:1011100081E393E00E941A05FF91EF91BF91AF9197
:101120009F918F917F916F915F914F913F912F91FF
:101130000F900BBE0F900FBE0F901F9018951F922F
:101140000F920FB60F9211240BB60F922F933F936D
:101150004F935F936F937F938F939F93AF93BF93BF
:10116000EF93FF9381E393E00E94A604FF91EF9138
:10117000BF91AF919F918F917F916F915F914F91AF
:101180003F912F910F900BBE0F900FBE0F901F90AD
:1011900018951F920F920FB60F9211240BB60F9253
:1011A0002F933F934F935F936F937F938F939F936F
:1011B000AF93BF93EF93FF938EEC93E00E941A05D9
:1011C000FF91EF91BF91AF919F918F917F916F911F
:1011D0005F914F913F912F910F900BBE0F900FBEDB
:1011E0000F901F9018951F920F920FB60F92112417
:1011F0000BB60F922F933F934F935F936F937F9311
:101200008F939F93AF93BF93EF93FF938EEC93E0F5
:101210000E94A604FF91EF91BF91AF919F918F9192
:101220007F916F915F914F913F912F910F900BBEE6
:101230000F900FBE0F901F9018951F920F920FB630
:101240000F9211240BB60F922F933F934F935F93FE
:101250006F937F938F939F93AF93BF93EF93FF937E
:101260008BE694E00E941A05FF91EF91BF91AF9138
:101270009F918F917F916F915F914F913F912F91AE
:101280000F900BBE0F900FBE0F901F9018951F92DE
:101290000F920FB60F9211240BB60F922F933F931C
:1012A0004F935F936F937F938F939F93AF93BF936E
:1012B000EF93FF938BE694E00E94A604FF91EF91D9
:1012C000BF91AF919F918F917F916F915F914F915E
:1012D0003F912F910F900BBE0F900FBE0F901F905C
:1012E00018951F920F920FB60F9211240BB60F9202
:1012F0002F933F934F935F936F937F938F939F931E
:10130000AF93BF93CF93DF93EF93FF9320910905A2
:1013100030E0F901ED5AFD4F8491F901E35FFD4F93
:10132000D491F901E953FE4FC491CC2379F0811196
:101330000E943102EC2FF0E0EE0FFF1FE858FE4F45
:10134000A591B491EC91ED2381E009F480E0209126
:101350000D0530910E052F5F3F4F30930E05209302
:101360000D0590910C05953618F096E090930805C0
:1013700090910805943009F466C0B8F49230F1F009
:10138000933009F444C090910B05992309F46BC084
:1013900081117EC080910A05882309F463C0809181
:1013A0000A0561E00E9498025EC0953009F457C0BA
:1013B000963049F791E09093D9054FC08111E3CF62
:1013C00020910D0530910E052436310528F4109238
:1013D0000E0510920D05D7CF1092D90510920C056D
:1013E000E0910C0591E09E0F90930C05F0E02091A8
:1013F0000D0530910E05EE0FFF1FE85FFA4F3087A5
:10140000278310920E0510920D0593E019C08130CC
:1014100009F0B9CFE0910C0591E09E0F90930C0577
:10142000F0E020910D0530910E05EE0FFF1FE85FF3
:10143000FA4F3087278310920E0510920D0594E025
:1014400090930805A0CF882359F220910D05309183
:101450000E052536310508F496CF95E0F1CF8111C0
:1014600092CFB5CF2F9AFF91EF91DF91CF91BF919E
:10147000AF919F918F917F916F915F914F913F912C
:101480002F910F900BBE0F900FBE0F901F901895CD
:1014900080910A05882321F080910A0560E082CFBF
:1014A0002F98E1CF1F920F920FB60F9211240BB617
:1014B0000F922F933F934F935F936F937F938F93ED
:1014C0009F93AF93BF93CF93DF93EF93FF9380915D
:1014D0005902C0911606D0E087FF23C01092850004
:1014E00010928400809159028F5F809359028091FD
:1014F0005902082E000C990B8C179D0724F480913B
:1015000059028C3074F1809184009091850084346C
:101510009C4908F465C080918400909185000496F0
:1015200061C080915902082E000C990B8C179D0701
:10153000CCF63091590225E03203F0011124E65235
:10154000FA4F808186FFCECF309159023203F001ED
:101550001124E652FA4F808160E08F730E94980256
:10156000C1CF80918400909185003091590225E08F
:101570003203F0011124E652FA4F41815281840F67
:10158000951F90938900809388003091590232030F
:10159000F0011124E652FA4F808186FF0CC0309191
:1015A00059023203F0011124E652FA4F808161E0C2
:1015B0008F730E949802FF91EF91DF91CF91BF91BD
:1015C000AF919F918F917F916F915F914F913F91DB
:1015D0002F910F900BBE0F900FBE0F901F9018957C
:1015E00080E49CE990938900809388008FEF80933A
:1015F0005902E1CF109228031092270388EE93E05E
:10160000A0E0B0E08093290390932A03A0932B03DA
:10161000B0932C0323E132E030932603209325037B
:101620001092340310923303809335039093360362
:10163000A0933703B093380325E232E030933203AE
:101640002093310345E351E050933E0340933D0323
:1016500044E351E05093400340933F0340E351E0A3
:10166000509342034093410341E351E050934403BC
:101670004093430342E351E05093460340934503B4
:1016800046E351E0509348034093470310924A03C6
:1016900010924B0310924C0310924D031092D10301
:1016A0001092D0038093D2039093D303A093D403DA
:1016B000B093D5033093CF032093CE0345ED50E094
:1016C0005093DB034093DA0344ED50E05093DD0385
:1016D0004093DC0340ED50E05093DF034093DE0382
:1016E00041ED50E05093E1034093E00342ED50E0C0
:1016F0005093E3034093E20346ED50E05093E5033B
:101700004093E4031092E7031092E8031092E90378
:101710001092EA0310926E0410926D0480936F048D
:1017200090937004A0937104B093720430936C048E
:1017300020936B0485EC90E0909378048093770479
:1017400084EC90E090937A048093790480EC90E0AC
:1017500090937C0480937B0481EC90E090937E04D2
:1017600080937D0482EC90E09093800480937F04CA
:1017700086EC90E09093820480938104109284041C
:1017800010928504109286041092870480910702BB
:1017900090910802A0910902B0910A02809300077B
:1017A00090930107A0930207B093030780910B0267
:1017B00090910C02A0910D02B0910E02809304074B
:1017C00090930507A0930607B093070784E08093E2
:1017D000080787E08093090710920A0784EB80933B
:1017E0000B0786E180930C0788E180930D0787E162
:1017F00080930E0789E180930F07E0911606EC3085
:1018000008F4AAC08FEF80931007E0911606EC3021
:1018100008F4B3C08FEF809311078CE08093DF064C
:1018200084E28093E00686E08093E10685E0809381
:10183000E2068FE18093E3068EE18093E40683E283
:101840008093E50682E28093E60685E48093E706CE
:1018500084E48093E80680E48093EB061092F0061F
:101860001092F1061092F2061092F3061092F4060E
:101870001092F5061092F6061092F706E1E2F6E0F5
:101880002FED36E08FEF9FEFDC011282138214827E
:101890001582168217821086118683879487A58702
:1018A000B6878787908BA18BB28B128611821082AC
:1018B00073962E173F0749F78DE090E00E945A0F6C
:1018C000FC011382128287E392E091838083118668
:1018D00087E2848384E1828784E083871486F0939F
:1018E0001E06E0931D0610921F061092200685E248
:1018F0008093090510920B05109218061092170696
:1019000010921A061092190610921C0610921B06CD
:1019100061E070E090E080E00E947F100097F1F1BC
:10192000909318068093170610921A0610921906C3
:1019300020911B0630911C06232B11F4FC01108210
:1019400010921C0610921B066FE372E0809117063E
:10195000909118060C94691181E08E0F8093160601
:10196000E093100785E0E89FF0011124E652FA4F5A
:1019700088EB9BE09283818348CF81E08E0F809338
:101980001606E093110785E0E89FF0011124E65266
:10199000FA4F88EB9BE0928381833FCF80911706BB
:1019A00090911806009711F00E94F60F10921806F9
:1019B0001092170610921C0610921B0610921A061F
:1019C000109219060895789484B5826084BD84B518
:1019D000816084BD85B5826085BD85B5816085BD2A
:1019E00080916E00816080936E00109281008091E2
:1019F000810082608093810080918100816080936A
:101A00008100809180008160809380008091B1008E
:101A100084608093B1008091B00081608093B000B9
:101A2000809191008260809391008091910081600B
:101A300080939100809190008160809390008091CC
:101A4000A10082608093A1008091A10081608093B9
:101A5000A1008091A00081608093A000809121016D
:101A60008260809321018091210181608093210116
:101A70008091200181608093200180917A008460B0
:101A800080937A0080917A00826080937A008091BE
:101A90007A00816080937A0080917A0080688093D8
:101AA0007A001092C100E0917B04F0917C0482E006
:101AB0008083E0917704F09178041082E0917904BA
:101AC000F0917A048FEC808310928304E0917F047C
:101AD000F091800486E08083E0917D04F0917E04A3
:101AE000808180618083E0917D04F0917E0480811B
:101AF00088608083E0917D04F0917E04808180681D
:101B00008083E0917D04F0917E0480818F7D8083CD
:101B100061E08091E0060E94050360E08091E006AC
:101B20000E94980260E08091DF060E94050385E232
:101B300093E09093EA068093E90610928A0210924D
:101B4000890210920203109224030E94C60289EABD
:101B500091E09093AD028093AC028AEA91E0909379
:101B6000B1028093B00280E090E1A0E0B0E0809309
:101B7000EC069093ED06A093EE06B093EF068AE094
:101B800090E0A0E0B0E08093F0069093F106A0937F
:101B9000F206B093F30680E090E0A0E0B0E480931A
:101BA000F4069093F506A093F606B093F70660E06E
:101BB00070E185E00E9442046FE979E380E00E94D1
:101BC000420401EE16E0CFEDD6E06CEFA62E61E008
:101BD000B62E72E4872E72E0972EEBECEE2EE7E045
:101BE000FE2EFBE8CF2EDD24D394F8019281819163
:101BF0008F01898F9A8F61E00E94050361E08A8DD1
:101C00000E940503F801958183818D8F9E8F61E08D
:101C10000E94050360E08E8D0E94050361E08D8DBA
:101C20000E9498027FB6F89480915F02811125C0CE
:101C3000F5018491F4019491E82FF0E0EE0FFF1F7D
:101C4000ED56FE4FA591B4918C91982321F461E05B
:101C500085E30E94980261E085E30E9405038CB54C
:101C600080618CBD8CB580648CBD61E084E30E9492
:101C7000050361E083E30E94050380915F028F5FAB
:101C800080935F027FBEC7010197F1F760E08D8D01
:101C90000E94980288E80E94D10583E00E94D10545
:101CA00061E08D8D0E949802C7010197F1F760E015
:101CB0008D8D0E94980288E90E94D10580E00E94E3
:101CC000D10580E00E94D10580E00E94D10580E02E
:101CD0000E94D10561E08D8D0E949802C601019796
:101CE000F1F760E08D8D0E94980280EE0E94D10590
:101CF00061E08D8D0E9498022296F6E0C33EDF07D8
:101D000009F073CFC4E0D7E000E017E060E089910C
:101D10000E94050327E0C830D207C1F7C8E0D7E02A
:101D200094E0E92E97E0F92E25E0D22E3CE0B32E88
:101D300042E0C42EA9908F818C3008F042C061E04F
:101D40008A2D0E9405038F81D89EF0011124E6524E
:101D5000FA4F2A2D2F739081907C922B90831382BF
:101D600014826B2D0E94460F8B9DA001112430E040
:101D700020E0BA01620F731FD69EF001D79EF00DCE
:101D80001124E652FA4F908196FD12C02F5F3F4F0B
:101D90002C30310571F781110BC010928000C09278
:101DA00081001092850010928400C6BAC0926F0024
:101DB000EF81DE9EF0011124E652FA4F80818064AB
:101DC00080839D818B81F801828B938B60E00E94E0
:101DD000050361E0F80183890E94050360E0F801D2
:101DE00083890E9498020E5F1F4FE016F10609F0EA
:101DF000A1CFF8941092200189E08093210180E224
:101E000093E090932901809328011092250110926C
:101E1000240182E0809373007894809308051092E7
:101E20000C058091090560E00E9405030E943603BD
:101E30006B017C018AE0882E912CA12CB12C0E9490
:101E400036036C197D098E099F09683E7340810530
:101E50009105A8F3F1E08F1A9108A108B10828EEC6
:101E6000C20E23E0D21EE11CF11C81149104A104D6
:101E7000B10429F70E94AC05D9CF80911706909143
:101E80001806009711F00C94F60F0895991B79E04D
:101E900004C0991F961708F0961B881F7A95C9F7FA
:101EA00080950895EE0FFF1F881F8BBF0790F69156
:101EB000E02D19940F931F93CF93DF9382309105F8
:101EC00010F482E090E0E0911807F091190730E0FB
:101ED00020E0B0E0A0E0309799F42115310509F435
:101EE0004AC0281B390B24303105D8F58A819B81E3
:101EF0006115710589F1FB0193838283FE0111C095
:101F0000408151810281138148175907E0F0481739
:101F1000590799F4109761F012960C931297139643
:101F20001C933296CF01DF91CF911F910F910895AD
:101F30000093180710931907F4CF2115310551F0BC
:101F40004217530738F0A901DB019A01BD01DF01F7
:101F5000F801C1CFEF01F9CF9093190780931807CB
:101F6000CDCFFE01E20FF31F8193919322503109EF
:101F700039832883D7CF2091160730911707232B59
:101F800041F420910302309104023093170720930B
:101F9000160720910102309102022115310541F40A
:101FA0002DB73EB74091050250910602241B350B18
:101FB000E0911607F0911707E217F307A0F42E1B24
:101FC0003F0B2817390778F0AC014E5F5F4F24179D
:101FD000350748F04E0F5F1F5093170740931607C1
:101FE000819391939FCFF0E0E0E09CCFCF93DF937C
:101FF0000097E9F0FC01329713821282A091180732
:10200000B0911907ED0130E020E01097A1F4208194
:102010003181820F931F20911607309117072817DF
:10202000390709F061C0F0931707E0931607DF91B5
:10203000CF910895EA01CE17DF07E8F54A815B8169
:102040009E0141155105B1F7E901FB83EA834991EE
:102050005991C40FD51FEC17FD0761F48081918160
:102060000296840F951FE901998388838281938169
:102070009B838A83F0E0E0E012968D919C91139708
:102080000097B9F52D913C911197CD010296820FE1
:10209000931F20911607309117072817390739F633
:1020A000309751F51092190710921807B09317073F
:1020B000A0931607BCCFD383C28340815181840F84
:1020C000951FC817D90761F44E5F5F4F88819981CA
:1020D000480F591F518340838A819B819383828358
:1020E0002115310509F0B0CFF0931907E0931807D7
:1020F0009ECFFD01DC01C0CF13821282D7CF4F9259
:102100005F926F927F928F929F92AF92BF92CF9287
:10211000DF92EF92FF920F931F93CF93DF938C0187
:10212000009799F4CB01DF91CF911F910F91FF9010
:10213000EF90DF90CF90BF90AF909F908F907F9067
:102140006F905F904F900C945A0FFC01E60FF71FB1
:102150009C0122503109E217F30708F4AEC0D901FF
:10216000CD91DC911197C617D70720F1C530D10565
:1021700078F0CE0104978617970750F0C61BD70B4F
:102180002297C193D1936D937C93CF010E94F60F58
:10219000C801DF91CF911F910F91FF90EF90DF90D9
:1021A000CF90BF90AF909F908F907F906F905F90F7
:1021B0004F9008955B01AC1ABD0A4C018C0E9D1E18
:1021C000A0911807B0911907512C412CF12CE12C4A
:1021D000109731F58091160790911707881599058A
:1021E00009F05CC04616570608F058C080910102FD
:1021F00090910202009741F48DB79EB7409105027D
:1022000050910602841B950BE817F90708F055C09A
:10221000F0931707E0931607F90171836083B8CF35
:102220008D919C91119712966C90129713967C90B9
:102230001397A815B90559F56C0142E0C40ED11CDD
:10224000CA14DB0420F1AC014A195B09DA011296C9
:10225000159780F06282738251834083D9016D9318
:102260007C93E114F10471F0D7011396FC93EE9383
:1022700012978ECF22968C0F9D1FF9019183808338
:10228000F301EFCFF0931907E093180781CF4816B9
:10229000590608F42C017D01D3019ACFCB010E948D
:1022A0005A0F7C01009749F0AE01B8010E946011FD
:1022B000C8010E94F60F87016BCF10E000E068CFE5
:1022C000FB01DC0102C001900D9241505040D8F753
:1022D0000895FB01DC0101900D920020E1F70895C3
:1022E00011E0CEE4D1E000E006C0802FFE010E94A4
:1022F000520F2196011DCF34D10780E00807A9F7BE
:04230000F894FFCF7F
:10230400FF00001A078000363738391B1D1A1C00DD
:102314000000000202D501EC05AB01CE01BB01AC0B
:1023240001000000003C057904BF048905F004CED7
:1023340004E2040000000004067904EC05EB050047
:00000001FF
